{
  "contractName": "AnimeLootPhysicalCharacteristics",
  "abi": [
    {
      "inputs": [],
      "stateMutability": "nonpayable",
      "type": "constructor"
    },
    {
      "anonymous": false,
      "inputs": [
        {
          "indexed": true,
          "internalType": "address",
          "name": "owner",
          "type": "address"
        },
        {
          "indexed": true,
          "internalType": "address",
          "name": "approved",
          "type": "address"
        },
        {
          "indexed": true,
          "internalType": "uint256",
          "name": "tokenId",
          "type": "uint256"
        }
      ],
      "name": "Approval",
      "type": "event"
    },
    {
      "anonymous": false,
      "inputs": [
        {
          "indexed": true,
          "internalType": "address",
          "name": "owner",
          "type": "address"
        },
        {
          "indexed": true,
          "internalType": "address",
          "name": "operator",
          "type": "address"
        },
        {
          "indexed": false,
          "internalType": "bool",
          "name": "approved",
          "type": "bool"
        }
      ],
      "name": "ApprovalForAll",
      "type": "event"
    },
    {
      "anonymous": false,
      "inputs": [
        {
          "indexed": true,
          "internalType": "address",
          "name": "previousOwner",
          "type": "address"
        },
        {
          "indexed": true,
          "internalType": "address",
          "name": "newOwner",
          "type": "address"
        }
      ],
      "name": "OwnershipTransferred",
      "type": "event"
    },
    {
      "anonymous": false,
      "inputs": [
        {
          "indexed": true,
          "internalType": "address",
          "name": "from",
          "type": "address"
        },
        {
          "indexed": true,
          "internalType": "address",
          "name": "to",
          "type": "address"
        },
        {
          "indexed": true,
          "internalType": "uint256",
          "name": "tokenId",
          "type": "uint256"
        }
      ],
      "name": "Transfer",
      "type": "event"
    },
    {
      "inputs": [
        {
          "internalType": "address",
          "name": "to",
          "type": "address"
        },
        {
          "internalType": "uint256",
          "name": "tokenId",
          "type": "uint256"
        }
      ],
      "name": "approve",
      "outputs": [],
      "stateMutability": "nonpayable",
      "type": "function"
    },
    {
      "inputs": [
        {
          "internalType": "address",
          "name": "owner",
          "type": "address"
        }
      ],
      "name": "balanceOf",
      "outputs": [
        {
          "internalType": "uint256",
          "name": "",
          "type": "uint256"
        }
      ],
      "stateMutability": "view",
      "type": "function",
      "constant": true
    },
    {
      "inputs": [
        {
          "internalType": "uint256",
          "name": "tokenId",
          "type": "uint256"
        }
      ],
      "name": "getApproved",
      "outputs": [
        {
          "internalType": "address",
          "name": "",
          "type": "address"
        }
      ],
      "stateMutability": "view",
      "type": "function",
      "constant": true
    },
    {
      "inputs": [
        {
          "internalType": "address",
          "name": "owner",
          "type": "address"
        },
        {
          "internalType": "address",
          "name": "operator",
          "type": "address"
        }
      ],
      "name": "isApprovedForAll",
      "outputs": [
        {
          "internalType": "bool",
          "name": "",
          "type": "bool"
        }
      ],
      "stateMutability": "view",
      "type": "function",
      "constant": true
    },
    {
      "inputs": [],
      "name": "name",
      "outputs": [
        {
          "internalType": "string",
          "name": "",
          "type": "string"
        }
      ],
      "stateMutability": "view",
      "type": "function",
      "constant": true
    },
    {
      "inputs": [],
      "name": "owner",
      "outputs": [
        {
          "internalType": "address",
          "name": "",
          "type": "address"
        }
      ],
      "stateMutability": "view",
      "type": "function",
      "constant": true
    },
    {
      "inputs": [
        {
          "internalType": "uint256",
          "name": "tokenId",
          "type": "uint256"
        }
      ],
      "name": "ownerOf",
      "outputs": [
        {
          "internalType": "address",
          "name": "",
          "type": "address"
        }
      ],
      "stateMutability": "view",
      "type": "function",
      "constant": true
    },
    {
      "inputs": [],
      "name": "renounceOwnership",
      "outputs": [],
      "stateMutability": "nonpayable",
      "type": "function"
    },
    {
      "inputs": [
        {
          "internalType": "address",
          "name": "from",
          "type": "address"
        },
        {
          "internalType": "address",
          "name": "to",
          "type": "address"
        },
        {
          "internalType": "uint256",
          "name": "tokenId",
          "type": "uint256"
        }
      ],
      "name": "safeTransferFrom",
      "outputs": [],
      "stateMutability": "nonpayable",
      "type": "function"
    },
    {
      "inputs": [
        {
          "internalType": "address",
          "name": "from",
          "type": "address"
        },
        {
          "internalType": "address",
          "name": "to",
          "type": "address"
        },
        {
          "internalType": "uint256",
          "name": "tokenId",
          "type": "uint256"
        },
        {
          "internalType": "bytes",
          "name": "_data",
          "type": "bytes"
        }
      ],
      "name": "safeTransferFrom",
      "outputs": [],
      "stateMutability": "nonpayable",
      "type": "function"
    },
    {
      "inputs": [
        {
          "internalType": "address",
          "name": "operator",
          "type": "address"
        },
        {
          "internalType": "bool",
          "name": "approved",
          "type": "bool"
        }
      ],
      "name": "setApprovalForAll",
      "outputs": [],
      "stateMutability": "nonpayable",
      "type": "function"
    },
    {
      "inputs": [
        {
          "internalType": "bytes4",
          "name": "interfaceId",
          "type": "bytes4"
        }
      ],
      "name": "supportsInterface",
      "outputs": [
        {
          "internalType": "bool",
          "name": "",
          "type": "bool"
        }
      ],
      "stateMutability": "view",
      "type": "function",
      "constant": true
    },
    {
      "inputs": [],
      "name": "symbol",
      "outputs": [
        {
          "internalType": "string",
          "name": "",
          "type": "string"
        }
      ],
      "stateMutability": "view",
      "type": "function",
      "constant": true
    },
    {
      "inputs": [
        {
          "internalType": "uint256",
          "name": "index",
          "type": "uint256"
        }
      ],
      "name": "tokenByIndex",
      "outputs": [
        {
          "internalType": "uint256",
          "name": "",
          "type": "uint256"
        }
      ],
      "stateMutability": "view",
      "type": "function",
      "constant": true
    },
    {
      "inputs": [
        {
          "internalType": "address",
          "name": "owner",
          "type": "address"
        },
        {
          "internalType": "uint256",
          "name": "index",
          "type": "uint256"
        }
      ],
      "name": "tokenOfOwnerByIndex",
      "outputs": [
        {
          "internalType": "uint256",
          "name": "",
          "type": "uint256"
        }
      ],
      "stateMutability": "view",
      "type": "function",
      "constant": true
    },
    {
      "inputs": [],
      "name": "totalSupply",
      "outputs": [
        {
          "internalType": "uint256",
          "name": "",
          "type": "uint256"
        }
      ],
      "stateMutability": "view",
      "type": "function",
      "constant": true
    },
    {
      "inputs": [
        {
          "internalType": "address",
          "name": "from",
          "type": "address"
        },
        {
          "internalType": "address",
          "name": "to",
          "type": "address"
        },
        {
          "internalType": "uint256",
          "name": "tokenId",
          "type": "uint256"
        }
      ],
      "name": "transferFrom",
      "outputs": [],
      "stateMutability": "nonpayable",
      "type": "function"
    },
    {
      "inputs": [
        {
          "internalType": "address",
          "name": "newOwner",
          "type": "address"
        }
      ],
      "name": "transferOwnership",
      "outputs": [],
      "stateMutability": "nonpayable",
      "type": "function"
    },
    {
      "inputs": [
        {
          "internalType": "uint256",
          "name": "tokenId",
          "type": "uint256"
        }
      ],
      "name": "getSpecies",
      "outputs": [
        {
          "internalType": "string",
          "name": "",
          "type": "string"
        }
      ],
      "stateMutability": "view",
      "type": "function",
      "constant": true
    },
    {
      "inputs": [
        {
          "internalType": "uint256",
          "name": "tokenId",
          "type": "uint256"
        }
      ],
      "name": "getSex",
      "outputs": [
        {
          "internalType": "string",
          "name": "",
          "type": "string"
        }
      ],
      "stateMutability": "view",
      "type": "function",
      "constant": true
    },
    {
      "inputs": [
        {
          "internalType": "uint256",
          "name": "tokenId",
          "type": "uint256"
        }
      ],
      "name": "getHeritage",
      "outputs": [
        {
          "internalType": "string",
          "name": "",
          "type": "string"
        }
      ],
      "stateMutability": "view",
      "type": "function",
      "constant": true
    },
    {
      "inputs": [
        {
          "internalType": "uint256",
          "name": "tokenId",
          "type": "uint256"
        }
      ],
      "name": "getPersonality",
      "outputs": [
        {
          "internalType": "string",
          "name": "",
          "type": "string"
        }
      ],
      "stateMutability": "view",
      "type": "function",
      "constant": true
    },
    {
      "inputs": [
        {
          "internalType": "uint256",
          "name": "tokenId",
          "type": "uint256"
        }
      ],
      "name": "tokenURI",
      "outputs": [
        {
          "internalType": "string",
          "name": "",
          "type": "string"
        }
      ],
      "stateMutability": "view",
      "type": "function",
      "constant": true
    },
    {
      "inputs": [
        {
          "internalType": "uint256",
          "name": "tokenId",
          "type": "uint256"
        }
      ],
      "name": "claim",
      "outputs": [],
      "stateMutability": "nonpayable",
      "type": "function"
    },
    {
      "inputs": [
        {
          "internalType": "uint256",
          "name": "tokenId",
          "type": "uint256"
        }
      ],
      "name": "ownerClaim",
      "outputs": [],
      "stateMutability": "nonpayable",
      "type": "function"
    }
  ],
  "bytecode": "0x60806040526040518061016001604052806040518060400160405280600581526020017f48756d616e00000000000000000000000000000000000000000000000000000081525081526020016040518060400160405280600d81526020017f5468657269616e7468726f70650000000000000000000000000000000000000081525081526020016040518060400160405280600381526020017f456c66000000000000000000000000000000000000000000000000000000000081525081526020016040518060400160405280600581526020017f447761726600000000000000000000000000000000000000000000000000000081525081526020016040518060400160405280600781526020017f56616d706972650000000000000000000000000000000000000000000000000081525081526020016040518060400160405280600781526020017f4d6572666f6c6b0000000000000000000000000000000000000000000000000081525081526020016040518060400160405280600981526020017f447261676f6e657774000000000000000000000000000000000000000000000081525081526020016040518060400160405280600581526020017f416e67656c00000000000000000000000000000000000000000000000000000081525081526020016040518060400160405280600581526020017f44656d6f6e00000000000000000000000000000000000000000000000000000081525081526020016040518060400160405280600781526020017f4d6f6e737465720000000000000000000000000000000000000000000000000081525081526020016040518060400160405280600781526020017f556e6b6e6f776e00000000000000000000000000000000000000000000000000815250815250600c90600b620002a99291906200090a565b5060405180608001604052806040518060400160405280600681526020017f46656d616c65000000000000000000000000000000000000000000000000000081525081526020016040518060400160405280600481526020017f4d616c650000000000000000000000000000000000000000000000000000000081525081526020016040518060400160405280600d81526020017f4865726d617068726f646974650000000000000000000000000000000000000081525081526020016040518060400160405280600781526020017f556e6b6e6f776e00000000000000000000000000000000000000000000000000815250815250600d906004620003b192919062000971565b5060405180608001604052806040518060400160405280600a81526020017f4869676820436c6173730000000000000000000000000000000000000000000081525081526020016040518060400160405280600c81526020017f4d6964646c6520436c617373000000000000000000000000000000000000000081525081526020016040518060400160405280600981526020017f4c6f7720436c617373000000000000000000000000000000000000000000000081525081526020016040518060400160405280600781526020017f556e6b6e6f776e00000000000000000000000000000000000000000000000000815250815250600e906004620004b992919062000971565b506040518061016001604052806040518060400160405280600781526020017f536572696f75730000000000000000000000000000000000000000000000000081525081526020016040518060400160405280600981526020017f467269766f6c6f7573000000000000000000000000000000000000000000000081525081526020016040518060400160405280600a81526020017f50617373696f6e6174650000000000000000000000000000000000000000000081525081526020016040518060400160405280600481526020017f436f6f6c0000000000000000000000000000000000000000000000000000000081525081526020016040518060400160405280600981526020017f436f6e666964656e74000000000000000000000000000000000000000000000081525081526020016040518060400160405280600981526020017f446966666964656e74000000000000000000000000000000000000000000000081525081526020016040518060400160405280600a81526020017f4f7074696d69737469630000000000000000000000000000000000000000000081525081526020016040518060400160405280600b81526020017f50657373696d697374696300000000000000000000000000000000000000000081525081526020016040518060400160405280600581526020017f526f75676800000000000000000000000000000000000000000000000000000081525081526020016040518060400160405280600681526020017f47656e746c65000000000000000000000000000000000000000000000000000081525081526020016040518060400160405280600781526020017f556e6b6e6f776e00000000000000000000000000000000000000000000000000815250815250600f90600b6200075f9291906200090a565b503480156200076d57600080fd5b506040518060400160405280602081526020017f416e696d654c6f6f74506879736963616c4368617261637465726973746963738152506040518060400160405280602081526020017f416e696d654c6f6f74506879736963616c4368617261637465726973746963738152508160009080519060200190620007f2929190620009d8565b5080600190805190602001906200080b929190620009d8565b5050506001600a81905550620008366200082a6200083c60201b60201c565b6200084460201b60201c565b62000b5b565b600033905090565b6000600b60009054906101000a900473ffffffffffffffffffffffffffffffffffffffff16905081600b60006101000a81548173ffffffffffffffffffffffffffffffffffffffff021916908373ffffffffffffffffffffffffffffffffffffffff1602179055508173ffffffffffffffffffffffffffffffffffffffff168173ffffffffffffffffffffffffffffffffffffffff167f8be0079c531659141344cd1fd0a4f28419497f9722a3daafe3b4186f6b6457e060405160405180910390a35050565b8280548282559060005260206000209081019282156200095e579160200282015b828111156200095d5782518290805190602001906200094c929190620009d8565b50916020019190600101906200092b565b5b5090506200096d919062000a69565b5090565b828054828255906000526020600020908101928215620009c5579160200282015b82811115620009c4578251829080519060200190620009b3929190620009d8565b509160200191906001019062000992565b5b509050620009d4919062000a69565b5090565b828054620009e69062000b25565b90600052602060002090601f01602090048101928262000a0a576000855562000a56565b82601f1062000a2557805160ff191683800117855562000a56565b8280016001018555821562000a56579182015b8281111562000a5557825182559160200191906001019062000a38565b5b50905062000a65919062000a91565b5090565b5b8082111562000a8d576000818162000a83919062000ab0565b5060010162000a6a565b5090565b5b8082111562000aac57600081600090555060010162000a92565b5090565b50805462000abe9062000b25565b6000825580601f1062000ad2575062000af3565b601f01602090049060005260206000209081019062000af2919062000a91565b5b50565b7f4e487b7100000000000000000000000000000000000000000000000000000000600052602260045260246000fd5b6000600282049050600182168062000b3e57607f821691505b6020821081141562000b555762000b5462000af6565b5b50919050565b6147cf8062000b6b6000396000f3fe608060405234801561001057600080fd5b50600436106101735760003560e01c80634f6ccce7116100de57806395d89b4111610097578063c87b56dd11610071578063c87b56dd1461046e578063e6e528391461049e578063e985e9c5146104ce578063f2fde38b146104fe57610173565b806395d89b4114610418578063a22cb46514610436578063b88d4fde1461045257610173565b80634f6ccce7146103305780636352211e1461036057806370a0823114610390578063715018a6146103c057806378efeb25146103ca5780638da5cb5b146103fa57610173565b806323b872dd1161013057806323b872dd146102605780632be6a2a91461027c5780632f745c59146102ac578063379607f5146102dc57806342842e0e146102f8578063434f48c41461031457610173565b806301ffc9a71461017857806306fdde03146101a8578063081812fc146101c6578063095ea7b3146101f657806318160ddd146102125780631ade97f714610230575b600080fd5b610192600480360381019061018d9190612ea4565b61051a565b60405161019f9190612eec565b60405180910390f35b6101b0610594565b6040516101bd9190612fa0565b60405180910390f35b6101e060048036038101906101db9190612ff8565b610626565b6040516101ed9190613066565b60405180910390f35b610210600480360381019061020b91906130ad565b6106ab565b005b61021a6107c3565b60405161022791906130fc565b60405180910390f35b61024a60048036038101906102459190612ff8565b6107d0565b6040516102579190612fa0565b60405180910390f35b61027a60048036038101906102759190613117565b6108ea565b005b61029660048036038101906102919190612ff8565b61094a565b6040516102a39190612fa0565b60405180910390f35b6102c660048036038101906102c191906130ad565b610a64565b6040516102d391906130fc565b60405180910390f35b6102f660048036038101906102f19190612ff8565b610b09565b005b610312600480360381019061030d9190613117565b610bc3565b005b61032e60048036038101906103299190612ff8565b610be3565b005b61034a60048036038101906103459190612ff8565b610d1a565b60405161035791906130fc565b60405180910390f35b61037a60048036038101906103759190612ff8565b610d8b565b6040516103879190613066565b60405180910390f35b6103aa60048036038101906103a5919061316a565b610e3d565b6040516103b791906130fc565b60405180910390f35b6103c8610ef5565b005b6103e460048036038101906103df9190612ff8565b610f7d565b6040516103f19190612fa0565b60405180910390f35b610402611097565b60405161040f9190613066565b60405180910390f35b6104206110c1565b60405161042d9190612fa0565b60405180910390f35b610450600480360381019061044b91906131c3565b611153565b005b61046c60048036038101906104679190613338565b6112d4565b005b61048860048036038101906104839190612ff8565b611336565b6040516104959190612fa0565b60405180910390f35b6104b860048036038101906104b39190612ff8565b6118ea565b6040516104c59190612fa0565b60405180910390f35b6104e860048036038101906104e391906133bb565b611a04565b6040516104f59190612eec565b60405180910390f35b6105186004803603810190610513919061316a565b611a98565b005b60007f780e9d63000000000000000000000000000000000000000000000000000000007bffffffffffffffffffffffffffffffffffffffffffffffffffffffff1916827bffffffffffffffffffffffffffffffffffffffffffffffffffffffff1916148061058d575061058c82611b90565b5b9050919050565b6060600080546105a39061342a565b80601f01602080910402602001604051908101604052809291908181526020018280546105cf9061342a565b801561061c5780601f106105f15761010080835404028352916020019161061c565b820191906000526020600020905b8154815290600101906020018083116105ff57829003601f168201915b5050505050905090565b600061063182611c72565b610670576040517f08c379a0000000000000000000000000000000000000000000000000000000008152600401610667906134ce565b60405180910390fd5b6004600083815260200190815260200160002060009054906101000a900473ffffffffffffffffffffffffffffffffffffffff169050919050565b60006106b682610d8b565b90508073ffffffffffffffffffffffffffffffffffffffff168373ffffffffffffffffffffffffffffffffffffffff161415610727576040517f08c379a000000000000000000000000000000000000000000000000000000000815260040161071e90613560565b60405180910390fd5b8073ffffffffffffffffffffffffffffffffffffffff16610746611cde565b73ffffffffffffffffffffffffffffffffffffffff16148061077557506107748161076f611cde565b611a04565b5b6107b4576040517f08c379a00000000000000000000000000000000000000000000000000000000081526004016107ab906135f2565b60405180910390fd5b6107be8383611ce6565b505050565b6000600880549050905090565b60606108e3826040518060400160405280600b81526020017f504552534f4e414c495459000000000000000000000000000000000000000000815250600f805480602002602001604051908101604052809291908181526020016000905b828210156108da57838290600052602060002001805461084d9061342a565b80601f01602080910402602001604051908101604052809291908181526020018280546108799061342a565b80156108c65780601f1061089b576101008083540402835291602001916108c6565b820191906000526020600020905b8154815290600101906020018083116108a957829003601f168201915b50505050508152602001906001019061082e565b50505050611d9f565b9050919050565b6108fb6108f5611cde565b82611e0e565b61093a576040517f08c379a000000000000000000000000000000000000000000000000000000000815260040161093190613684565b60405180910390fd5b610945838383611eec565b505050565b6060610a5d826040518060400160405280600781526020017f5350454349455300000000000000000000000000000000000000000000000000815250600c805480602002602001604051908101604052809291908181526020016000905b82821015610a545783829060005260206000200180546109c79061342a565b80601f01602080910402602001604051908101604052809291908181526020018280546109f39061342a565b8015610a405780601f10610a1557610100808354040283529160200191610a40565b820191906000526020600020905b815481529060010190602001808311610a2357829003601f168201915b5050505050815260200190600101906109a8565b50505050611d9f565b9050919050565b6000610a6f83610e3d565b8210610ab0576040517f08c379a0000000000000000000000000000000000000000000000000000000008152600401610aa790613716565b60405180910390fd5b600660008473ffffffffffffffffffffffffffffffffffffffff1673ffffffffffffffffffffffffffffffffffffffff168152602001908152602001600020600083815260200190815260200160002054905092915050565b6002600a541415610b4f576040517f08c379a0000000000000000000000000000000000000000000000000000000008152600401610b4690613782565b60405180910390fd5b6002600a81905550600081118015610b685750611e6281105b610ba7576040517f08c379a0000000000000000000000000000000000000000000000000000000008152600401610b9e906137ee565b60405180910390fd5b610bb8610bb2611cde565b82612148565b6001600a8190555050565b610bde838383604051806020016040528060008152506112d4565b505050565b6002600a541415610c29576040517f08c379a0000000000000000000000000000000000000000000000000000000008152600401610c2090613782565b60405180910390fd5b6002600a81905550610c39611cde565b73ffffffffffffffffffffffffffffffffffffffff16610c57611097565b73ffffffffffffffffffffffffffffffffffffffff1614610cad576040517f08c379a0000000000000000000000000000000000000000000000000000000008152600401610ca49061385a565b60405180910390fd5b611e6181118015610cbf5750611f4181105b610cfe576040517f08c379a0000000000000000000000000000000000000000000000000000000008152600401610cf5906137ee565b60405180910390fd5b610d0f610d09611097565b82612148565b6001600a8190555050565b6000610d246107c3565b8210610d65576040517f08c379a0000000000000000000000000000000000000000000000000000000008152600401610d5c906138ec565b60405180910390fd5b60088281548110610d7957610d7861390c565b5b90600052602060002001549050919050565b6000806002600084815260200190815260200160002060009054906101000a900473ffffffffffffffffffffffffffffffffffffffff169050600073ffffffffffffffffffffffffffffffffffffffff168173ffffffffffffffffffffffffffffffffffffffff161415610e34576040517f08c379a0000000000000000000000000000000000000000000000000000000008152600401610e2b906139ad565b60405180910390fd5b80915050919050565b60008073ffffffffffffffffffffffffffffffffffffffff168273ffffffffffffffffffffffffffffffffffffffff161415610eae576040517f08c379a0000000000000000000000000000000000000000000000000000000008152600401610ea590613a3f565b60405180910390fd5b600360008373ffffffffffffffffffffffffffffffffffffffff1673ffffffffffffffffffffffffffffffffffffffff168152602001908152602001600020549050919050565b610efd611cde565b73ffffffffffffffffffffffffffffffffffffffff16610f1b611097565b73ffffffffffffffffffffffffffffffffffffffff1614610f71576040517f08c379a0000000000000000000000000000000000000000000000000000000008152600401610f689061385a565b60405180910390fd5b610f7b6000612166565b565b6060611090826040518060400160405280600381526020017f5345580000000000000000000000000000000000000000000000000000000000815250600d805480602002602001604051908101604052809291908181526020016000905b82821015611087578382906000526020600020018054610ffa9061342a565b80601f01602080910402602001604051908101604052809291908181526020018280546110269061342a565b80156110735780601f1061104857610100808354040283529160200191611073565b820191906000526020600020905b81548152906001019060200180831161105657829003601f168201915b505050505081526020019060010190610fdb565b50505050611d9f565b9050919050565b6000600b60009054906101000a900473ffffffffffffffffffffffffffffffffffffffff16905090565b6060600180546110d09061342a565b80601f01602080910402602001604051908101604052809291908181526020018280546110fc9061342a565b80156111495780601f1061111e57610100808354040283529160200191611149565b820191906000526020600020905b81548152906001019060200180831161112c57829003601f168201915b5050505050905090565b61115b611cde565b73ffffffffffffffffffffffffffffffffffffffff168273ffffffffffffffffffffffffffffffffffffffff1614156111c9576040517f08c379a00000000000000000000000000000000000000000000000000000000081526004016111c090613aab565b60405180910390fd5b80600560006111d6611cde565b73ffffffffffffffffffffffffffffffffffffffff1673ffffffffffffffffffffffffffffffffffffffff16815260200190815260200160002060008473ffffffffffffffffffffffffffffffffffffffff1673ffffffffffffffffffffffffffffffffffffffff16815260200190815260200160002060006101000a81548160ff0219169083151502179055508173ffffffffffffffffffffffffffffffffffffffff16611283611cde565b73ffffffffffffffffffffffffffffffffffffffff167f17307eab39ab6107e8899845ad3d59bd9653f200f220920489ca2b5937696c31836040516112c89190612eec565b60405180910390a35050565b6112e56112df611cde565b83611e0e565b611324576040517f08c379a000000000000000000000000000000000000000000000000000000000815260040161131b90613684565b60405180910390fd5b6113308484848461222c565b50505050565b6060611340612e10565b604051806101400160405280610101815260200161453d6101019139816000601181106113705761136f61390c565b5b60200201819052506113818361094a565b816001601181106113955761139461390c565b5b602002018190525060405180606001604052806028815260200161477260289139816002601181106113ca576113c961390c565b5b60200201819052506113db83610f7d565b816003601181106113ef576113ee61390c565b5b602002018190525060405180606001604052806028815260200161463e60289139816004601181106114245761142361390c565b5b6020020181905250611435836118ea565b816005601181106114495761144861390c565b5b60200201819052506040518060600160405280602881526020016146b8602891398160066011811061147e5761147d61390c565b5b602002018190525061148f836107d0565b816007601181106114a3576114a261390c565b5b60200201819052506040518060600160405280602981526020016146e060299139816008601181106114d8576114d761390c565b5b602002018190525060405180602001604052806000815250816009601181106115045761150361390c565b5b602002018190525060405180606001604052806029815260200161468f6029913981600a601181106115395761153861390c565b5b60200201819052506040518060200160405280600081525081600b601181106115655761156461390c565b5b60200201819052506040518060600160405280602981526020016147096029913981600c6011811061159a5761159961390c565b5b60200201819052506040518060200160405280600081525081600d601181106115c6576115c561390c565b5b60200201819052506040518060600160405280602981526020016146666029913981600e601181106115fb576115fa61390c565b5b60200201819052506040518060200160405280600081525081600f601181106116275761162661390c565b5b60200201819052506040518060400160405280600d81526020017f3c2f746578743e3c2f7376673e00000000000000000000000000000000000000815250816010601181106116795761167861390c565b5b60200201819052506000816000601181106116975761169661390c565b5b6020020151826001601181106116b0576116af61390c565b5b6020020151836002601181106116c9576116c861390c565b5b6020020151846003601181106116e2576116e161390c565b5b6020020151856004601181106116fb576116fa61390c565b5b6020020151866005601181106117145761171361390c565b5b60200201518760066011811061172d5761172c61390c565b5b6020020151886007601181106117465761174561390c565b5b60200201518960086011811061175f5761175e61390c565b5b602002015160405160200161177c99989796959493929190613b07565b604051602081830303815290604052905080826009601181106117a2576117a161390c565b5b602002015183600a601181106117bb576117ba61390c565b5b602002015184600b601181106117d4576117d361390c565b5b602002015185600c601181106117ed576117ec61390c565b5b602002015186600d601181106118065761180561390c565b5b602002015187600e6011811061181f5761181e61390c565b5b602002015188600f601181106118385761183761390c565b5b6020020151896010601181106118515761185061390c565b5b602002015160405160200161186e99989796959493929190613b07565b604051602081830303815290604052905060006118bb61188d86612288565b611896846123e9565b6040516020016118a7929190613d9d565b6040516020818303038152906040526123e9565b9050806040516020016118ce9190613e2e565b6040516020818303038152906040529150819350505050919050565b60606119fd826040518060400160405280600881526020017f4845524954414745000000000000000000000000000000000000000000000000815250600e805480602002602001604051908101604052809291908181526020016000905b828210156119f45783829060005260206000200180546119679061342a565b80601f01602080910402602001604051908101604052809291908181526020018280546119939061342a565b80156119e05780601f106119b5576101008083540402835291602001916119e0565b820191906000526020600020905b8154815290600101906020018083116119c357829003601f168201915b505050505081526020019060010190611948565b50505050611d9f565b9050919050565b6000600560008473ffffffffffffffffffffffffffffffffffffffff1673ffffffffffffffffffffffffffffffffffffffff16815260200190815260200160002060008373ffffffffffffffffffffffffffffffffffffffff1673ffffffffffffffffffffffffffffffffffffffff16815260200190815260200160002060009054906101000a900460ff16905092915050565b611aa0611cde565b73ffffffffffffffffffffffffffffffffffffffff16611abe611097565b73ffffffffffffffffffffffffffffffffffffffff1614611b14576040517f08c379a0000000000000000000000000000000000000000000000000000000008152600401611b0b9061385a565b60405180910390fd5b600073ffffffffffffffffffffffffffffffffffffffff168173ffffffffffffffffffffffffffffffffffffffff161415611b84576040517f08c379a0000000000000000000000000000000000000000000000000000000008152600401611b7b90613ec2565b60405180910390fd5b611b8d81612166565b50565b60007f80ac58cd000000000000000000000000000000000000000000000000000000007bffffffffffffffffffffffffffffffffffffffffffffffffffffffff1916827bffffffffffffffffffffffffffffffffffffffffffffffffffffffff19161480611c5b57507f5b5e139f000000000000000000000000000000000000000000000000000000007bffffffffffffffffffffffffffffffffffffffffffffffffffffffff1916827bffffffffffffffffffffffffffffffffffffffffffffffffffffffff1916145b80611c6b5750611c6a82612581565b5b9050919050565b60008073ffffffffffffffffffffffffffffffffffffffff166002600084815260200190815260200160002060009054906101000a900473ffffffffffffffffffffffffffffffffffffffff1673ffffffffffffffffffffffffffffffffffffffff1614159050919050565b600033905090565b816004600083815260200190815260200160002060006101000a81548173ffffffffffffffffffffffffffffffffffffffff021916908373ffffffffffffffffffffffffffffffffffffffff160217905550808273ffffffffffffffffffffffffffffffffffffffff16611d5983610d8b565b73ffffffffffffffffffffffffffffffffffffffff167f8c5be1e5ebec7d5bd14f71427d1e84f3dd0314c0f7b2291e5b200ac8c7c3b92560405160405180910390a45050565b60606000611dd584611db087612288565b604051602001611dc1929190613ee2565b6040516020818303038152906040526125eb565b9050600083845183611de79190613f35565b81518110611df857611df761390c565b5b6020026020010151905080925050509392505050565b6000611e1982611c72565b611e58576040517f08c379a0000000000000000000000000000000000000000000000000000000008152600401611e4f90613fd8565b60405180910390fd5b6000611e6383610d8b565b90508073ffffffffffffffffffffffffffffffffffffffff168473ffffffffffffffffffffffffffffffffffffffff161480611ed257508373ffffffffffffffffffffffffffffffffffffffff16611eba84610626565b73ffffffffffffffffffffffffffffffffffffffff16145b80611ee35750611ee28185611a04565b5b91505092915050565b8273ffffffffffffffffffffffffffffffffffffffff16611f0c82610d8b565b73ffffffffffffffffffffffffffffffffffffffff1614611f62576040517f08c379a0000000000000000000000000000000000000000000000000000000008152600401611f599061406a565b60405180910390fd5b600073ffffffffffffffffffffffffffffffffffffffff168273ffffffffffffffffffffffffffffffffffffffff161415611fd2576040517f08c379a0000000000000000000000000000000000000000000000000000000008152600401611fc9906140fc565b60405180910390fd5b611fdd83838361261e565b611fe8600082611ce6565b6001600360008573ffffffffffffffffffffffffffffffffffffffff1673ffffffffffffffffffffffffffffffffffffffff1681526020019081526020016000206000828254612038919061414b565b925050819055506001600360008473ffffffffffffffffffffffffffffffffffffffff1673ffffffffffffffffffffffffffffffffffffffff168152602001908152602001600020600082825461208f919061417f565b92505081905550816002600083815260200190815260200160002060006101000a81548173ffffffffffffffffffffffffffffffffffffffff021916908373ffffffffffffffffffffffffffffffffffffffff160217905550808273ffffffffffffffffffffffffffffffffffffffff168473ffffffffffffffffffffffffffffffffffffffff167fddf252ad1be2c89b69c2b068fc378daa952ba7f163c4a11628f55a4df523b3ef60405160405180910390a4505050565b612162828260405180602001604052806000815250612732565b5050565b6000600b60009054906101000a900473ffffffffffffffffffffffffffffffffffffffff16905081600b60006101000a81548173ffffffffffffffffffffffffffffffffffffffff021916908373ffffffffffffffffffffffffffffffffffffffff1602179055508173ffffffffffffffffffffffffffffffffffffffff168173ffffffffffffffffffffffffffffffffffffffff167f8be0079c531659141344cd1fd0a4f28419497f9722a3daafe3b4186f6b6457e060405160405180910390a35050565b612237848484611eec565b6122438484848461278d565b612282576040517f08c379a000000000000000000000000000000000000000000000000000000000815260040161227990614247565b60405180910390fd5b50505050565b606060008214156122d0576040518060400160405280600181526020017f300000000000000000000000000000000000000000000000000000000000000081525090506123e4565b600082905060005b600082146123025780806122eb90614267565b915050600a826122fb91906142b0565b91506122d8565b60008167ffffffffffffffff81111561231e5761231d61320d565b5b6040519080825280601f01601f1916602001820160405280156123505781602001600182028036833780820191505090505b5090505b600085146123dd57600182612369919061414b565b9150600a856123789190613f35565b6030612384919061417f565b60f81b81838151811061239a5761239961390c565b5b60200101907effffffffffffffffffffffffffffffffffffffffffffffffffffffffffffff1916908160001a905350600a856123d691906142b0565b9450612354565b8093505050505b919050565b60606000825190506000811415612412576040518060200160405280600081525091505061257c565b60006003600283612423919061417f565b61242d91906142b0565b600461243991906142e1565b9050600060208261244a919061417f565b67ffffffffffffffff8111156124635761246261320d565b5b6040519080825280601f01601f1916602001820160405280156124955781602001600182028036833780820191505090505b5090506000604051806060016040528060408152602001614732604091399050600181016020830160005b868110156125395760038101905062ffffff818a015116603f8160121c168401518060081b905060ff603f83600c1c1686015116810190508060081b905060ff603f8360061c1686015116810190508060081b905060ff603f831686015116810190508060e01b905080845260048401935050506124c0565b50600386066001811461255357600281146125635761256e565b613d3d60f01b600283035261256e565b603d60f81b60018303525b508484525050819450505050505b919050565b60007f01ffc9a7000000000000000000000000000000000000000000000000000000007bffffffffffffffffffffffffffffffffffffffffffffffffffffffff1916827bffffffffffffffffffffffffffffffffffffffffffffffffffffffff1916149050919050565b6000816040516020016125fe919061433b565b6040516020818303038152906040528051906020012060001c9050919050565b612629838383612924565b600073ffffffffffffffffffffffffffffffffffffffff168373ffffffffffffffffffffffffffffffffffffffff16141561266c5761266781612929565b6126ab565b8173ffffffffffffffffffffffffffffffffffffffff168373ffffffffffffffffffffffffffffffffffffffff16146126aa576126a98382612972565b5b5b600073ffffffffffffffffffffffffffffffffffffffff168273ffffffffffffffffffffffffffffffffffffffff1614156126ee576126e981612adf565b61272d565b8273ffffffffffffffffffffffffffffffffffffffff168273ffffffffffffffffffffffffffffffffffffffff161461272c5761272b8282612bb0565b5b5b505050565b61273c8383612c2f565b612749600084848461278d565b612788576040517f08c379a000000000000000000000000000000000000000000000000000000000815260040161277f90614247565b60405180910390fd5b505050565b60006127ae8473ffffffffffffffffffffffffffffffffffffffff16612dfd565b15612917578373ffffffffffffffffffffffffffffffffffffffff1663150b7a026127d7611cde565b8786866040518563ffffffff1660e01b81526004016127f994939291906143a7565b602060405180830381600087803b15801561281357600080fd5b505af192505050801561284457506040513d601f19601f820116820180604052508101906128419190614408565b60015b6128c7573d8060008114612874576040519150601f19603f3d011682016040523d82523d6000602084013e612879565b606091505b506000815114156128bf576040517f08c379a00000000000000000000000000000000000000000000000000000000081526004016128b690614247565b60405180910390fd5b805181602001fd5b63150b7a0260e01b7bffffffffffffffffffffffffffffffffffffffffffffffffffffffff1916817bffffffffffffffffffffffffffffffffffffffffffffffffffffffff19161491505061291c565b600190505b949350505050565b505050565b6008805490506009600083815260200190815260200160002081905550600881908060018154018082558091505060019003906000526020600020016000909190919091505550565b6000600161297f84610e3d565b612989919061414b565b9050600060076000848152602001908152602001600020549050818114612a6e576000600660008673ffffffffffffffffffffffffffffffffffffffff1673ffffffffffffffffffffffffffffffffffffffff168152602001908152602001600020600084815260200190815260200160002054905080600660008773ffffffffffffffffffffffffffffffffffffffff1673ffffffffffffffffffffffffffffffffffffffff168152602001908152602001600020600084815260200190815260200160002081905550816007600083815260200190815260200160002081905550505b6007600084815260200190815260200160002060009055600660008573ffffffffffffffffffffffffffffffffffffffff1673ffffffffffffffffffffffffffffffffffffffff16815260200190815260200160002060008381526020019081526020016000206000905550505050565b60006001600880549050612af3919061414b565b9050600060096000848152602001908152602001600020549050600060088381548110612b2357612b2261390c565b5b906000526020600020015490508060088381548110612b4557612b4461390c565b5b906000526020600020018190555081600960008381526020019081526020016000208190555060096000858152602001908152602001600020600090556008805480612b9457612b93614435565b5b6001900381819060005260206000200160009055905550505050565b6000612bbb83610e3d565b905081600660008573ffffffffffffffffffffffffffffffffffffffff1673ffffffffffffffffffffffffffffffffffffffff168152602001908152602001600020600083815260200190815260200160002081905550806007600084815260200190815260200160002081905550505050565b600073ffffffffffffffffffffffffffffffffffffffff168273ffffffffffffffffffffffffffffffffffffffff161415612c9f576040517f08c379a0000000000000000000000000000000000000000000000000000000008152600401612c96906144b0565b60405180910390fd5b612ca881611c72565b15612ce8576040517f08c379a0000000000000000000000000000000000000000000000000000000008152600401612cdf9061451c565b60405180910390fd5b612cf46000838361261e565b6001600360008473ffffffffffffffffffffffffffffffffffffffff1673ffffffffffffffffffffffffffffffffffffffff1681526020019081526020016000206000828254612d44919061417f565b92505081905550816002600083815260200190815260200160002060006101000a81548173ffffffffffffffffffffffffffffffffffffffff021916908373ffffffffffffffffffffffffffffffffffffffff160217905550808273ffffffffffffffffffffffffffffffffffffffff16600073ffffffffffffffffffffffffffffffffffffffff167fddf252ad1be2c89b69c2b068fc378daa952ba7f163c4a11628f55a4df523b3ef60405160405180910390a45050565b600080823b905060008111915050919050565b6040518061022001604052806011905b6060815260200190600190039081612e205790505090565b6000604051905090565b600080fd5b600080fd5b60007fffffffff0000000000000000000000000000000000000000000000000000000082169050919050565b612e8181612e4c565b8114612e8c57600080fd5b50565b600081359050612e9e81612e78565b92915050565b600060208284031215612eba57612eb9612e42565b5b6000612ec884828501612e8f565b91505092915050565b60008115159050919050565b612ee681612ed1565b82525050565b6000602082019050612f016000830184612edd565b92915050565b600081519050919050565b600082825260208201905092915050565b60005b83811015612f41578082015181840152602081019050612f26565b83811115612f50576000848401525b50505050565b6000601f19601f8301169050919050565b6000612f7282612f07565b612f7c8185612f12565b9350612f8c818560208601612f23565b612f9581612f56565b840191505092915050565b60006020820190508181036000830152612fba8184612f67565b905092915050565b6000819050919050565b612fd581612fc2565b8114612fe057600080fd5b50565b600081359050612ff281612fcc565b92915050565b60006020828403121561300e5761300d612e42565b5b600061301c84828501612fe3565b91505092915050565b600073ffffffffffffffffffffffffffffffffffffffff82169050919050565b600061305082613025565b9050919050565b61306081613045565b82525050565b600060208201905061307b6000830184613057565b92915050565b61308a81613045565b811461309557600080fd5b50565b6000813590506130a781613081565b92915050565b600080604083850312156130c4576130c3612e42565b5b60006130d285828601613098565b92505060206130e385828601612fe3565b9150509250929050565b6130f681612fc2565b82525050565b600060208201905061311160008301846130ed565b92915050565b6000806000606084860312156131305761312f612e42565b5b600061313e86828701613098565b935050602061314f86828701613098565b925050604061316086828701612fe3565b9150509250925092565b6000602082840312156131805761317f612e42565b5b600061318e84828501613098565b91505092915050565b6131a081612ed1565b81146131ab57600080fd5b50565b6000813590506131bd81613197565b92915050565b600080604083850312156131da576131d9612e42565b5b60006131e885828601613098565b92505060206131f9858286016131ae565b9150509250929050565b600080fd5b600080fd5b7f4e487b7100000000000000000000000000000000000000000000000000000000600052604160045260246000fd5b61324582612f56565b810181811067ffffffffffffffff821117156132645761326361320d565b5b80604052505050565b6000613277612e38565b9050613283828261323c565b919050565b600067ffffffffffffffff8211156132a3576132a261320d565b5b6132ac82612f56565b9050602081019050919050565b82818337600083830152505050565b60006132db6132d684613288565b61326d565b9050828152602081018484840111156132f7576132f6613208565b5b6133028482856132b9565b509392505050565b600082601f83011261331f5761331e613203565b5b813561332f8482602086016132c8565b91505092915050565b6000806000806080858703121561335257613351612e42565b5b600061336087828801613098565b945050602061337187828801613098565b935050604061338287828801612fe3565b925050606085013567ffffffffffffffff8111156133a3576133a2612e47565b5b6133af8782880161330a565b91505092959194509250565b600080604083850312156133d2576133d1612e42565b5b60006133e085828601613098565b92505060206133f185828601613098565b9150509250929050565b7f4e487b7100000000000000000000000000000000000000000000000000000000600052602260045260246000fd5b6000600282049050600182168061344257607f821691505b60208210811415613456576134556133fb565b5b50919050565b7f4552433732313a20617070726f76656420717565727920666f72206e6f6e657860008201527f697374656e7420746f6b656e0000000000000000000000000000000000000000602082015250565b60006134b8602c83612f12565b91506134c38261345c565b604082019050919050565b600060208201905081810360008301526134e7816134ab565b9050919050565b7f4552433732313a20617070726f76616c20746f2063757272656e74206f776e6560008201527f7200000000000000000000000000000000000000000000000000000000000000602082015250565b600061354a602183612f12565b9150613555826134ee565b604082019050919050565b600060208201905081810360008301526135798161353d565b9050919050565b7f4552433732313a20617070726f76652063616c6c6572206973206e6f74206f7760008201527f6e6572206e6f7220617070726f76656420666f7220616c6c0000000000000000602082015250565b60006135dc603883612f12565b91506135e782613580565b604082019050919050565b6000602082019050818103600083015261360b816135cf565b9050919050565b7f4552433732313a207472616e736665722063616c6c6572206973206e6f74206f60008201527f776e6572206e6f7220617070726f766564000000000000000000000000000000602082015250565b600061366e603183612f12565b915061367982613612565b604082019050919050565b6000602082019050818103600083015261369d81613661565b9050919050565b7f455243373231456e756d657261626c653a206f776e657220696e646578206f7560008201527f74206f6620626f756e6473000000000000000000000000000000000000000000602082015250565b6000613700602b83612f12565b915061370b826136a4565b604082019050919050565b6000602082019050818103600083015261372f816136f3565b9050919050565b7f5265656e7472616e637947756172643a207265656e7472616e742063616c6c00600082015250565b600061376c601f83612f12565b915061377782613736565b602082019050919050565b6000602082019050818103600083015261379b8161375f565b9050919050565b7f546f6b656e20494420696e76616c696400000000000000000000000000000000600082015250565b60006137d8601083612f12565b91506137e3826137a2565b602082019050919050565b60006020820190508181036000830152613807816137cb565b9050919050565b7f4f776e61626c653a2063616c6c6572206973206e6f7420746865206f776e6572600082015250565b6000613844602083612f12565b915061384f8261380e565b602082019050919050565b6000602082019050818103600083015261387381613837565b9050919050565b7f455243373231456e756d657261626c653a20676c6f62616c20696e646578206f60008201527f7574206f6620626f756e64730000000000000000000000000000000000000000602082015250565b60006138d6602c83612f12565b91506138e18261387a565b604082019050919050565b60006020820190508181036000830152613905816138c9565b9050919050565b7f4e487b7100000000000000000000000000000000000000000000000000000000600052603260045260246000fd5b7f4552433732313a206f776e657220717565727920666f72206e6f6e657869737460008201527f656e7420746f6b656e0000000000000000000000000000000000000000000000602082015250565b6000613997602983612f12565b91506139a28261393b565b604082019050919050565b600060208201905081810360008301526139c68161398a565b9050919050565b7f4552433732313a2062616c616e636520717565727920666f7220746865207a6560008201527f726f206164647265737300000000000000000000000000000000000000000000602082015250565b6000613a29602a83612f12565b9150613a34826139cd565b604082019050919050565b60006020820190508181036000830152613a5881613a1c565b9050919050565b7f4552433732313a20617070726f766520746f2063616c6c657200000000000000600082015250565b6000613a95601983612f12565b9150613aa082613a5f565b602082019050919050565b60006020820190508181036000830152613ac481613a88565b9050919050565b600081905092915050565b6000613ae182612f07565b613aeb8185613acb565b9350613afb818560208601612f23565b80840191505092915050565b6000613b13828c613ad6565b9150613b1f828b613ad6565b9150613b2b828a613ad6565b9150613b378289613ad6565b9150613b438288613ad6565b9150613b4f8287613ad6565b9150613b5b8286613ad6565b9150613b678285613ad6565b9150613b738284613ad6565b91508190509a9950505050505050505050565b7f7b226e616d65223a2022416e696d652043686172616374657220230000000000600082015250565b6000613bbc601b83613acb565b9150613bc782613b86565b601b82019050919050565b7f222c20226465736372697074696f6e223a2022416e696d654c6f6f742069732060008201527f72616e646f6d697a656420616e696d6520636861726163746572732067656e6560208201527f726174656420616e642073746f726564206f6e20636861696e2e204f7468657260408201527f206665617475726573206f66207468652063686172616374657273206172652060608201527f696e74656e74696f6e616c6c79206f6d697474656420666f72206f746865727360808201527f20746f20696e746572707265742e204665656c206672656520746f207573652060a08201527f416e696d654c6f6f7420696e20616e792077617920796f752077616e742e222c60c08201527f2022696d616765223a2022646174613a696d6167652f7376672b786d6c3b626160e08201527f736536342c00000000000000000000000000000000000000000000000000000061010082015250565b6000613d3a61010583613acb565b9150613d4582613bd2565b61010582019050919050565b7f227d000000000000000000000000000000000000000000000000000000000000600082015250565b6000613d87600283613acb565b9150613d9282613d51565b600282019050919050565b6000613da882613baf565b9150613db48285613ad6565b9150613dbf82613d2c565b9150613dcb8284613ad6565b9150613dd682613d7a565b91508190509392505050565b7f646174613a6170706c69636174696f6e2f6a736f6e3b6261736536342c000000600082015250565b6000613e18601d83613acb565b9150613e2382613de2565b601d82019050919050565b6000613e3982613e0b565b9150613e458284613ad6565b915081905092915050565b7f4f776e61626c653a206e6577206f776e657220697320746865207a65726f206160008201527f6464726573730000000000000000000000000000000000000000000000000000602082015250565b6000613eac602683612f12565b9150613eb782613e50565b604082019050919050565b60006020820190508181036000830152613edb81613e9f565b9050919050565b6000613eee8285613ad6565b9150613efa8284613ad6565b91508190509392505050565b7f4e487b7100000000000000000000000000000000000000000000000000000000600052601260045260246000fd5b6000613f4082612fc2565b9150613f4b83612fc2565b925082613f5b57613f5a613f06565b5b828206905092915050565b7f4552433732313a206f70657261746f7220717565727920666f72206e6f6e657860008201527f697374656e7420746f6b656e0000000000000000000000000000000000000000602082015250565b6000613fc2602c83612f12565b9150613fcd82613f66565b604082019050919050565b60006020820190508181036000830152613ff181613fb5565b9050919050565b7f4552433732313a207472616e73666572206f6620746f6b656e2074686174206960008201527f73206e6f74206f776e0000000000000000000000000000000000000000000000602082015250565b6000614054602983612f12565b915061405f82613ff8565b604082019050919050565b6000602082019050818103600083015261408381614047565b9050919050565b7f4552433732313a207472616e7366657220746f20746865207a65726f2061646460008201527f7265737300000000000000000000000000000000000000000000000000000000602082015250565b60006140e6602483612f12565b91506140f18261408a565b604082019050919050565b60006020820190508181036000830152614115816140d9565b9050919050565b7f4e487b7100000000000000000000000000000000000000000000000000000000600052601160045260246000fd5b600061415682612fc2565b915061416183612fc2565b9250828210156141745761417361411c565b5b828203905092915050565b600061418a82612fc2565b915061419583612fc2565b9250827fffffffffffffffffffffffffffffffffffffffffffffffffffffffffffffffff038211156141ca576141c961411c565b5b828201905092915050565b7f4552433732313a207472616e7366657220746f206e6f6e20455243373231526560008201527f63656976657220696d706c656d656e7465720000000000000000000000000000602082015250565b6000614231603283612f12565b915061423c826141d5565b604082019050919050565b6000602082019050818103600083015261426081614224565b9050919050565b600061427282612fc2565b91507fffffffffffffffffffffffffffffffffffffffffffffffffffffffffffffffff8214156142a5576142a461411c565b5b600182019050919050565b60006142bb82612fc2565b91506142c683612fc2565b9250826142d6576142d5613f06565b5b828204905092915050565b60006142ec82612fc2565b91506142f783612fc2565b9250817fffffffffffffffffffffffffffffffffffffffffffffffffffffffffffffffff04831182151516156143305761432f61411c565b5b828202905092915050565b60006143478284613ad6565b915081905092915050565b600081519050919050565b600082825260208201905092915050565b600061437982614352565b614383818561435d565b9350614393818560208601612f23565b61439c81612f56565b840191505092915050565b60006080820190506143bc6000830187613057565b6143c96020830186613057565b6143d660408301856130ed565b81810360608301526143e8818461436e565b905095945050505050565b60008151905061440281612e78565b92915050565b60006020828403121561441e5761441d612e42565b5b600061442c848285016143f3565b91505092915050565b7f4e487b7100000000000000000000000000000000000000000000000000000000600052603160045260246000fd5b7f4552433732313a206d696e7420746f20746865207a65726f2061646472657373600082015250565b600061449a602083612f12565b91506144a582614464565b602082019050919050565b600060208201905081810360008301526144c98161448d565b9050919050565b7f4552433732313a20746f6b656e20616c7265616479206d696e74656400000000600082015250565b6000614506601c83612f12565b9150614511826144d0565b602082019050919050565b60006020820190508181036000830152614535816144f9565b905091905056fe3c73766720786d6c6e733d22687474703a2f2f7777772e77332e6f72672f323030302f73766722207072657365727665417370656374526174696f3d22784d696e594d696e206d656574222076696577426f783d223020302033353020333530223e3c7374796c653e2e62617365207b2066696c6c3a20233030303030303b20666f6e742d66616d696c793a2073657269663b20666f6e742d73697a653a20313470783b207d3c2f7374796c653e3c726563742077696474683d223130302522206865696768743d2231303025222066696c6c3d222346464631303022202f3e3c7465787420783d2231302220793d2232302220636c6173733d2262617365223e3c2f746578743e3c7465787420783d2231302220793d2236302220636c6173733d2262617365223e3c2f746578743e3c7465787420783d2231302220793d223136302220636c6173733d2262617365223e3c2f746578743e3c7465787420783d2231302220793d223132302220636c6173733d2262617365223e3c2f746578743e3c7465787420783d2231302220793d2238302220636c6173733d2262617365223e3c2f746578743e3c7465787420783d2231302220793d223130302220636c6173733d2262617365223e3c2f746578743e3c7465787420783d2231302220793d223134302220636c6173733d2262617365223e4142434445464748494a4b4c4d4e4f505152535455565758595a6162636465666768696a6b6c6d6e6f707172737475767778797a303132333435363738392b2f3c2f746578743e3c7465787420783d2231302220793d2234302220636c6173733d2262617365223ea2646970667358221220b50d604a0e441b38adb742f687bff9756cc53aecd6fcf1a66c9e4faa2537da4764736f6c63430008080033",
  "immutableReferences": {},
  "source": "pragma solidity ^0.8.0;\r\n\r\nimport \"@openzeppelin/contracts/token/ERC721/extensions/ERC721Enumerable.sol\";\r\nimport \"@openzeppelin/contracts/security/ReentrancyGuard.sol\";\r\nimport \"@openzeppelin/contracts/access/Ownable.sol\";\r\nimport \"./Base64.sol\";\r\n\r\ncontract AnimeLootPhysicalCharacteristics is ERC721Enumerable, ReentrancyGuard, Ownable {\r\n\r\n    string[] private species = [\r\n        \"Human\",\r\n        \"Therianthrope\",\r\n        \"Elf\",\r\n        \"Dwarf\",\r\n        \"Vampire\",\r\n        \"Merfolk\",\r\n        \"Dragonewt\",\r\n        \"Angel\",\r\n        \"Demon\",\r\n        \"Monster\",\r\n        \"Unknown\"\r\n    ];\r\n    \r\n    string[] private sex = [\r\n        \"Female\",\r\n        \"Male\",\r\n        \"Hermaphrodite\",\r\n        \"Unknown\"\r\n    ];\r\n    \r\n    string[] private heritage = [\r\n        \"High Class\",\r\n        \"Middle Class\",\r\n        \"Low Class\",\r\n        \"Unknown\"\r\n    ];\r\n    \r\n    string[] private personality = [\r\n       \"Serious\",\r\n       \"Frivolous\",\r\n       \"Passionate\",\r\n       \"Cool\",\r\n       \"Confident\",\r\n       \"Diffident\",\r\n       \"Optimistic\",\r\n       \"Pessimistic\",\r\n       \"Rough\",\r\n       \"Gentle\",\r\n       \"Unknown\" \r\n    ];\r\n    \r\n    function random(string memory input) internal pure returns (uint256) {\r\n        return uint256(keccak256(abi.encodePacked(input)));\r\n    }\r\n    \r\n    function getSpecies(uint256 tokenId) public view returns (string memory) {\r\n        return pluck(tokenId, \"SPECIES\", species);\r\n    }\r\n    \r\n    function getSex(uint256 tokenId) public view returns (string memory) {\r\n        return pluck(tokenId, \"SEX\", sex);\r\n    }\r\n    \r\n    function getHeritage(uint256 tokenId) public view returns (string memory) {\r\n        return pluck(tokenId, \"HERITAGE\", heritage);\r\n    }\r\n    \r\n    function getPersonality(uint256 tokenId) public view returns (string memory) {\r\n        return pluck(tokenId, \"PERSONALITY\", personality);\r\n    }\r\n    \r\n    function pluck(uint256 tokenId, string memory keyPrefix, string[] memory sourceArray) internal view returns (string memory) {\r\n        uint256 rand = random(string(abi.encodePacked(keyPrefix, toString(tokenId))));\r\n        string memory output = sourceArray[rand % sourceArray.length];\r\n        return output;\r\n    }\r\n\r\n    function tokenURI(uint256 tokenId) override public view returns (string memory) {\r\n        string[17] memory parts;\r\n        parts[0] = '<svg xmlns=\"http://www.w3.org/2000/svg\" preserveAspectRatio=\"xMinYMin meet\" viewBox=\"0 0 350 350\"><style>.base { fill: #000000; font-family: serif; font-size: 14px; }</style><rect width=\"100%\" height=\"100%\" fill=\"#FFF100\" /><text x=\"10\" y=\"20\" class=\"base\">';\r\n\r\n        parts[1] = getSpecies(tokenId);\r\n\r\n        parts[2] = '</text><text x=\"10\" y=\"40\" class=\"base\">';\r\n\r\n        parts[3] = getSex(tokenId);\r\n\r\n        parts[4] = '</text><text x=\"10\" y=\"60\" class=\"base\">';\r\n\r\n        parts[5] = getHeritage(tokenId);\r\n\r\n        parts[6] = '</text><text x=\"10\" y=\"80\" class=\"base\">';\r\n\r\n        parts[7] = getPersonality(tokenId);\r\n\r\n        parts[8] = '</text><text x=\"10\" y=\"100\" class=\"base\">';\r\n\r\n        parts[9] = '';\r\n\r\n        parts[10] = '</text><text x=\"10\" y=\"120\" class=\"base\">';\r\n\r\n        parts[11] = '';\r\n\r\n        parts[12] = '</text><text x=\"10\" y=\"140\" class=\"base\">';\r\n\r\n        parts[13] = '';\r\n\r\n        parts[14] = '</text><text x=\"10\" y=\"160\" class=\"base\">';\r\n\r\n        parts[15] = '';\r\n\r\n        parts[16] = '</text></svg>';\r\n\r\n        string memory output = string(abi.encodePacked(parts[0], parts[1], parts[2], parts[3], parts[4], parts[5], parts[6], parts[7], parts[8]));\r\n        output = string(abi.encodePacked(output, parts[9], parts[10], parts[11], parts[12], parts[13], parts[14], parts[15], parts[16]));\r\n        \r\n        string memory json = Base64.encode(bytes(string(abi.encodePacked('{\"name\": \"Anime Character #', toString(tokenId), '\", \"description\": \"AnimeLoot is randomized anime characters generated and stored on chain. Other features of the characters are intentionally omitted for others to interpret. Feel free to use AnimeLoot in any way you want.\", \"image\": \"data:image/svg+xml;base64,', Base64.encode(bytes(output)), '\"}'))));\r\n        output = string(abi.encodePacked('data:application/json;base64,', json));\r\n\r\n        return output;\r\n    }\r\n\r\n    function claim(uint256 tokenId) public nonReentrant {\r\n        require(tokenId > 0 && tokenId < 7778, \"Token ID invalid\");\r\n        _safeMint(_msgSender(), tokenId);\r\n    }\r\n    \r\n    function ownerClaim(uint256 tokenId) public nonReentrant onlyOwner {\r\n        require(tokenId > 7777 && tokenId < 8001, \"Token ID invalid\");\r\n        _safeMint(owner(), tokenId);\r\n    }\r\n    \r\n    function toString(uint256 value) internal pure returns (string memory) {\r\n    // Inspired by OraclizeAPI's implementation - MIT license\r\n    // https://github.com/oraclize/ethereum-api/blob/b42146b063c7d6ee1358846c198246239e9360e8/oraclizeAPI_0.4.25.sol\r\n\r\n        if (value == 0) {\r\n            return \"0\";\r\n        }\r\n        uint256 temp = value;\r\n        uint256 digits;\r\n        while (temp != 0) {\r\n            digits++;\r\n            temp /= 10;\r\n        }\r\n        bytes memory buffer = new bytes(digits);\r\n        while (value != 0) {\r\n            digits -= 1;\r\n            buffer[digits] = bytes1(uint8(48 + uint256(value % 10)));\r\n            value /= 10;\r\n        }\r\n        return string(buffer);\r\n    }\r\n    \r\n    constructor() ERC721(\"AnimeLootPhysicalCharacteristics\", \"AnimeLootPhysicalCharacteristics\") Ownable() {}\r\n\r\n}\r\n",
  "sourcePath": "C:\\Users\\syund\\eclipse-workspace\\greeter\\contracts\\AnimeLootPhysicalCharacteristics.sol",
  "compiler": {
    "name": "solc",
    "version": "0.8.8+commit.dddeac2f.Emscripten.clang"
  },
  "schemaVersion": "3.4.3",
  "updatedAt": "2021-09-29T04:13:51.751Z",
  "networkType": "ethereum",
  "devdoc": {
    "kind": "dev",
    "methods": {
      "approve(address,uint256)": {
        "details": "See {IERC721-approve}."
      },
      "balanceOf(address)": {
        "details": "See {IERC721-balanceOf}."
      },
      "getApproved(uint256)": {
        "details": "See {IERC721-getApproved}."
      },
      "isApprovedForAll(address,address)": {
        "details": "See {IERC721-isApprovedForAll}."
      },
      "name()": {
        "details": "See {IERC721Metadata-name}."
      },
      "owner()": {
        "details": "Returns the address of the current owner."
      },
      "ownerOf(uint256)": {
        "details": "See {IERC721-ownerOf}."
      },
      "renounceOwnership()": {
        "details": "Leaves the contract without owner. It will not be possible to call `onlyOwner` functions anymore. Can only be called by the current owner. NOTE: Renouncing ownership will leave the contract without an owner, thereby removing any functionality that is only available to the owner."
      },
      "safeTransferFrom(address,address,uint256)": {
        "details": "See {IERC721-safeTransferFrom}."
      },
      "safeTransferFrom(address,address,uint256,bytes)": {
        "details": "See {IERC721-safeTransferFrom}."
      },
      "setApprovalForAll(address,bool)": {
        "details": "See {IERC721-setApprovalForAll}."
      },
      "supportsInterface(bytes4)": {
        "details": "See {IERC165-supportsInterface}."
      },
      "symbol()": {
        "details": "See {IERC721Metadata-symbol}."
      },
      "tokenByIndex(uint256)": {
        "details": "See {IERC721Enumerable-tokenByIndex}."
      },
      "tokenOfOwnerByIndex(address,uint256)": {
        "details": "See {IERC721Enumerable-tokenOfOwnerByIndex}."
      },
      "tokenURI(uint256)": {
        "details": "See {IERC721Metadata-tokenURI}."
      },
      "totalSupply()": {
        "details": "See {IERC721Enumerable-totalSupply}."
      },
      "transferFrom(address,address,uint256)": {
        "details": "See {IERC721-transferFrom}."
      },
      "transferOwnership(address)": {
        "details": "Transfers ownership of the contract to a new account (`newOwner`). Can only be called by the current owner."
      }
    },
    "version": 1
  },
  "userdoc": {
    "kind": "user",
    "methods": {},
    "version": 1
  }
}