{
  "contractName": "Greeter",
  "abi": [
    {
      "anonymous": false,
      "inputs": [
        {
          "indexed": true,
          "internalType": "address",
          "name": "previousOwner",
          "type": "address"
        },
        {
          "indexed": true,
          "internalType": "address",
          "name": "newOwner",
          "type": "address"
        }
      ],
      "name": "OwnershipTransferred",
      "type": "event"
    },
    {
      "inputs": [],
      "name": "owner",
      "outputs": [
        {
          "internalType": "address",
          "name": "",
          "type": "address"
        }
      ],
      "stateMutability": "view",
      "type": "function"
    },
    {
      "inputs": [],
      "name": "renounceOwnership",
      "outputs": [],
      "stateMutability": "nonpayable",
      "type": "function"
    },
    {
      "inputs": [
        {
          "internalType": "address",
          "name": "newOwner",
          "type": "address"
        }
      ],
      "name": "transferOwnership",
      "outputs": [],
      "stateMutability": "nonpayable",
      "type": "function"
    },
    {
      "inputs": [],
      "name": "greet",
      "outputs": [
        {
          "internalType": "string",
          "name": "",
          "type": "string"
        }
      ],
      "stateMutability": "view",
      "type": "function"
    },
    {
      "inputs": [
        {
          "internalType": "string",
          "name": "greeting",
          "type": "string"
        }
      ],
      "name": "setGreeting",
      "outputs": [],
      "stateMutability": "nonpayable",
      "type": "function"
    }
  ],
  "bytecode": "0x60806040526040518060400160405280600f81526020017f48656c6c6f2c20576f726c6421203200000000000000000000000000000000008152506001908051906020019061004f92919061014a565b5034801561005c57600080fd5b5061007961006e61007e60201b60201c565b61008660201b60201c565b61024e565b600033905090565b60008060009054906101000a900473ffffffffffffffffffffffffffffffffffffffff169050816000806101000a81548173ffffffffffffffffffffffffffffffffffffffff021916908373ffffffffffffffffffffffffffffffffffffffff1602179055508173ffffffffffffffffffffffffffffffffffffffff168173ffffffffffffffffffffffffffffffffffffffff167f8be0079c531659141344cd1fd0a4f28419497f9722a3daafe3b4186f6b6457e060405160405180910390a35050565b828054610156906101ed565b90600052602060002090601f01602090048101928261017857600085556101bf565b82601f1061019157805160ff19168380011785556101bf565b828001600101855582156101bf579182015b828111156101be5782518255916020019190600101906101a3565b5b5090506101cc91906101d0565b5090565b5b808211156101e95760008160009055506001016101d1565b5090565b6000600282049050600182168061020557607f821691505b602082108114156102195761021861021f565b5b50919050565b7f4e487b7100000000000000000000000000000000000000000000000000000000600052602260045260246000fd5b6108d78061025d6000396000f3fe608060405234801561001057600080fd5b50600436106100575760003560e01c8063715018a61461005c5780638da5cb5b14610066578063a413686214610084578063cfae3217146100a0578063f2fde38b146100be575b600080fd5b6100646100da565b005b61006e610162565b60405161007b9190610689565b60405180910390f35b61009e600480360381019061009991906105ae565b61018b565b005b6100a861021d565b6040516100b591906106a4565b60405180910390f35b6100d860048036038101906100d39190610581565b6102af565b005b6100e26103a7565b73ffffffffffffffffffffffffffffffffffffffff16610100610162565b73ffffffffffffffffffffffffffffffffffffffff1614610156576040517f08c379a000000000000000000000000000000000000000000000000000000000815260040161014d906106e6565b60405180910390fd5b61016060006103af565b565b60008060009054906101000a900473ffffffffffffffffffffffffffffffffffffffff16905090565b6101936103a7565b73ffffffffffffffffffffffffffffffffffffffff166101b1610162565b73ffffffffffffffffffffffffffffffffffffffff1614610207576040517f08c379a00000000000000000000000000000000000000000000000000000000081526004016101fe906106e6565b60405180910390fd5b818160019190610218929190610473565b505050565b60606001805461022c90610787565b80601f016020809104026020016040519081016040528092919081815260200182805461025890610787565b80156102a55780601f1061027a576101008083540402835291602001916102a5565b820191906000526020600020905b81548152906001019060200180831161028857829003601f168201915b5050505050905090565b6102b76103a7565b73ffffffffffffffffffffffffffffffffffffffff166102d5610162565b73ffffffffffffffffffffffffffffffffffffffff161461032b576040517f08c379a0000000000000000000000000000000000000000000000000000000008152600401610322906106e6565b60405180910390fd5b600073ffffffffffffffffffffffffffffffffffffffff168173ffffffffffffffffffffffffffffffffffffffff16141561039b576040517f08c379a0000000000000000000000000000000000000000000000000000000008152600401610392906106c6565b60405180910390fd5b6103a4816103af565b50565b600033905090565b60008060009054906101000a900473ffffffffffffffffffffffffffffffffffffffff169050816000806101000a81548173ffffffffffffffffffffffffffffffffffffffff021916908373ffffffffffffffffffffffffffffffffffffffff1602179055508173ffffffffffffffffffffffffffffffffffffffff168173ffffffffffffffffffffffffffffffffffffffff167f8be0079c531659141344cd1fd0a4f28419497f9722a3daafe3b4186f6b6457e060405160405180910390a35050565b82805461047f90610787565b90600052602060002090601f0160209004810192826104a157600085556104e8565b82601f106104ba57803560ff19168380011785556104e8565b828001600101855582156104e8579182015b828111156104e75782358255916020019190600101906104cc565b5b5090506104f591906104f9565b5090565b5b808211156105125760008160009055506001016104fa565b5090565b6000813590506105258161088a565b92915050565b60008083601f840112610541576105406107ed565b5b8235905067ffffffffffffffff81111561055e5761055d6107e8565b5b60208301915083600182028301111561057a576105796107f2565b5b9250929050565b600060208284031215610597576105966107fc565b5b60006105a584828501610516565b91505092915050565b600080602083850312156105c5576105c46107fc565b5b600083013567ffffffffffffffff8111156105e3576105e26107f7565b5b6105ef8582860161052b565b92509250509250929050565b61060481610722565b82525050565b600061061582610706565b61061f8185610711565b935061062f818560208601610754565b61063881610801565b840191505092915050565b6000610650602683610711565b915061065b82610812565b604082019050919050565b6000610673602083610711565b915061067e82610861565b602082019050919050565b600060208201905061069e60008301846105fb565b92915050565b600060208201905081810360008301526106be818461060a565b905092915050565b600060208201905081810360008301526106df81610643565b9050919050565b600060208201905081810360008301526106ff81610666565b9050919050565b600081519050919050565b600082825260208201905092915050565b600061072d82610734565b9050919050565b600073ffffffffffffffffffffffffffffffffffffffff82169050919050565b60005b83811015610772578082015181840152602081019050610757565b83811115610781576000848401525b50505050565b6000600282049050600182168061079f57607f821691505b602082108114156107b3576107b26107b9565b5b50919050565b7f4e487b7100000000000000000000000000000000000000000000000000000000600052602260045260246000fd5b600080fd5b600080fd5b600080fd5b600080fd5b600080fd5b6000601f19601f8301169050919050565b7f4f776e61626c653a206e6577206f776e657220697320746865207a65726f206160008201527f6464726573730000000000000000000000000000000000000000000000000000602082015250565b7f4f776e61626c653a2063616c6c6572206973206e6f7420746865206f776e6572600082015250565b61089381610722565b811461089e57600080fd5b5056fea2646970667358221220445de76163fadcf94264cdd7375dd5ec13d1bf95c75ad988b3cacde6a0d5805a64736f6c63430008070033",
  "immutableReferences": {},
  "source": "pragma solidity ^0.8.0;\r\n\r\nimport \"@openzeppelin/contracts/access/Ownable.sol\";\r\n\r\ncontract Greeter is Ownable {\r\n\r\n    string private _greeting = \"Hello, World! 2\";\r\n\r\n    function greet() external view returns(string memory) {\r\n        return _greeting;\r\n    }\r\n\r\n    function setGreeting(string calldata greeting) external onlyOwner {\r\n        _greeting = greeting;\r\n    }\r\n}\r\n",
  "sourcePath": "C:\\Users\\syund\\eclipse-workspace\\greeter\\contracts\\Greeter.sol",
  "compiler": {
    "name": "solc",
    "version": "0.8.7+commit.e28d00a7.Emscripten.clang"
  },
  "schemaVersion": "3.4.3",
  "updatedAt": "2021-09-21T14:15:10.260Z",
  "devdoc": {
    "kind": "dev",
    "methods": {
      "owner()": {
        "details": "Returns the address of the current owner."
      },
      "renounceOwnership()": {
        "details": "Leaves the contract without owner. It will not be possible to call `onlyOwner` functions anymore. Can only be called by the current owner. NOTE: Renouncing ownership will leave the contract without an owner, thereby removing any functionality that is only available to the owner."
      },
      "transferOwnership(address)": {
        "details": "Transfers ownership of the contract to a new account (`newOwner`). Can only be called by the current owner."
      }
    },
    "version": 1
  },
  "userdoc": {
    "kind": "user",
    "methods": {},
    "version": 1
  }
}